:020000040000FA
:10000000A003001099020000A9020000A102000054
:1000100000000000000000000000000000000000E0
:10002000000000000000000000000000A30200002B
:100030000000000000000000A5020000A702000070
:10004000A9020000A9020000000000006B060000E9
:10005000A9020000A902000000000000A90200009F
:10006000A9020000A9020000A9020000A9020000E4
:10007000A9020000A9020000A9020000A9020000D4
:10008000A9020000A9020000A9020000A9020000C4
:10009000A9020000A9020000A9020000000000005F
:1000A000A9020000A9020000A9020000A9020000A4
:1000B000A9020000A9020000A9020000A902000094
:1000C00000F002F800F0BDF80CA030C80838241881
:1000D0002D18A246671EAB4654465D46AC4201D180
:1000E00000F0AFF87E460F3E0FCCB64601263342F5
:1000F00000D0FB1AA246AB4633431847E434000055
:1001000004350000103A02D378C878C1FAD85207F3
:1001100001D330C830C101D504680C6070470000BD
:100120000023002400250026103A01D378C1FBD813
:10013000520700D330C100D50B60704710B56E294F
:1001400002D102F0B1F810BD702902D102F0EBF932
:1001500010BD662902D103F0A5F910BD652902D1B1
:1001600003F0A0F910BD672902D103F09BF910BD7F
:10017000612902D1C046C04610BD03681B0A01D3E5
:1001800080231943692902D102F058F810BD64296F
:1001900002D102F053F810BD752902D102F04EF8D9
:1001A00010BD6F2902D102F069F910BD782902D182
:1001B00002F0A6F910BDE92902D102F005F910BD3F
:1001C000E42902D102F000F910BDF52902D102F0B4
:1001D000FBF810BDEF2902D102F05CF910BDF8293F
:1001E00002D102F09BF910BD0368DB0901D3802323
:1001F0001943632902D102F012FD10BD732902D107
:1002000002F015FD10BDE32902D102F01FFD10BD63
:10021000F32902D102F022FD10BD002010BD1FB550
:1002200002F07CFD04000020002103F025F9401CB1
:1002300060600020002103F009F9E0601FBD10B5E7
:1002400010BD02F043FD1146FFF7E9FF00F098FCF6
:1002500003F064F803B4FFF7F2FF03BC03F0ACF85B
:1002600070B505460C46164602E00FCC0FC5103E91
:10027000102EFAD2082E02D303CC03C5083E042E5A
:1002800007D301CC01C5361F03E021782970641C17
:100290006D1C761EF9D270BD07488047074800479D
:1002A000FEE7FEE7FEE7FEE7FEE70000044805493B
:1002B000034A054B7047000051090000C1000000CF
:1002C000A0010010A0030010A00100101CB50C46F6
:1002D000064B7B4469460090204601F0FEFF044631
:1002E0000020694602F00CF820461CBD2B200000BF
:1002F000704770477047704700000000FFFFFFFF26
:1003000010B50121480400F0A7FB002101204004A2
:1003100000F093FB0121880400F09EFB00210120E6
:10032000800400F08AFB10BD10B5354800684021FC
:100330000843334908603348006A032109028843AF
:10034000304908620846006A891508432D49086249
:100350002D4800680121490408432B4908602B48B7
:10036000006809018843294908602748006801217D
:10037000890308432449086025480068012189034E
:100380000843234908602048006801214903884345
:100390001D490860FFF7B4FF10BD10B50021012012
:1003A000400400F04AFB0121880400F046FB7D2058
:1003B000C00000F060FE00210120400400F03DFB81
:1003C00000210120800400F038FB124800F053FEA9
:1003D0000121480400F031FB00210120800400F0DD
:1003E0002CFB7D20C00000F046FE002101204004CF
:1003F00000F023FB00210120800400F01EFB10BD53
:100400008080044000400440002000A0802200A022
:10041000002100A0905F010010B56E48C068000286
:10042000000A6C49C8600846C0680D2149060843A7
:100430006849C86008460069000C00040861084665
:1004400000691B2108436349086108460069891453
:100450000843604908616048006801214906084373
:100460005D4908605D480068090308435B4908600E
:100470005B4800680121C90208435949086058488F
:100480008038406840084000554980394860084637
:100490004068012108435249803948605149524817
:1004A000006801F0BBFD401E5049486200204860D2
:1004B0004F4808620520086010BD014600BF4B4848
:1004C0008068022210400028F9D04848816100BFAE
:1004D00046488068C007C00F0028F9D043484169EA
:1004E000C8B2704710B503460C463C48006801216D
:1004F000490688433949086059000722120611430A
:100500000846FFF7DAFF3921490521430846FFF77E
:10051000D4FF324800680121490608432F4908608A
:10052000012010BD10B503462C4800680121490682
:1005300088432A49086059002E4A11430846FFF7AC
:10054000BCFF39204005FFF7B8FF04462348006888
:1005500001214906084321490860204610BDF0B535
:1005600005460E461746002D00D1F0BD1B48006819
:1005700001214906884319490860002405E03046F6
:10058000FFF7D0FF3855601CC4B2AC42F7DB13480C
:1005900000680121490608431049086000BFE4E7EC
:1005A000F0B505460E461746002D00D1F0BD0024DB
:1005B00005E0395D3046FFF795FF601CC4B2AC42E0
:1005C000F7DB064800680121490608430349086033
:1005D00000BFEBE700C00040002000A0002100A009
:1005E0008080044040420F00100000100080054051
:1005F000000021078000000710B574480068000C57
:1006000000047249086008460068086008460068EF
:100610000321490208436D49086001206C49486183
:1006200008460068012189030843694908600A46B1
:1006300052691201E1235B025A431146644A403A6F
:10064000926B644B1B685A43104601F0E7FC401E56
:1006500061490862052008600120C860032001216B
:1006600081405E4A116000BF10BD10B500205A499C
:100670008968C907C90F00293CD00021584A117068
:100680000121584A117054494969CAB254490B783A
:100690000978491C524C21705349CA5426E0002065
:1006A00004E0401C5149884200D905E04A49896864
:1006B000C907C90F0029F4D000BF4C49884200D9AE
:1006C00017E047490978642901DD002101E0444928
:1006D0000978434A117040494969CAB240490B78C8
:1006E0000978491C3E4C21703F49CA544049884210
:1006F000D5D300BF3849896804221140002904D0AD
:10070000354909691143344A116110BD00BF3249AE
:100710008968042211400029F9D02F49C861C968AD
:1007200011432D4AD1607047F0B506460F46354655
:100730001DE02878031129786D1C0C07240F0A2B63
:1007400003DA18463030C3B202E018463730C3B27D
:100750000A2C03DA20463030C4B202E0204637309B
:10076000C4B21846FFF7D2FF2046FFF7CFFF384646
:10077000791ECFB20028DCD1F0BD10B503460C467F
:1007800003E018785B1CFFF7C1FF2046641E0028B9
:10079000F7D110BD0FB410B5A2B0002425A8019068
:1007A00002A8019A2499FFF791FD05E002A9085DCE
:1007B000FFF7ACFF601CC4B202A8005D0028F5D1B1
:1007C00022B010BC08BC04B01847000000C00040B4
:1007D00080800440100000100040064000E100E06E
:1007E0000D0000100C000010B8000010881300006D
:1007F000B80B000010B500247348406AC005000F14
:10080000030002F0F7FD10090B0D0F111315171956
:100810001B1D1F212325272900241DE06B4C1BE0F5
:100820006B4C19E06B4C17E06B4C15E06B4C13E014
:100830006B4C11E06B4C0FE06B4C0DE06B4C0BE024
:100840006B4C09E06B4C07E06B4C05E06B4C03E034
:100850006B4C01E06B4C00BF00BF5B48406AC006B8
:10086000800E811C204601F0D9FB044656484030DA
:10087000006B8007800F002806D0012808D00228CE
:1008800026D0032859D126E05F486049086054E02B
:100890004D48403000688007800F002806D00128AE
:1008A00008D002280AD0032810D10BE05648574937
:1008B00008600BE054485549086007E000205349A0
:1008C000086003E050485149086000BF00BF34E0B1
:1008D0004E48046031E03C48403000688007800F9B
:1008E000002806D001280ED0022816D0032822D1D5
:1008F00017E035488068C006C00E401C4249484396
:100900004249086017E030488068C006C00E401CAD
:100910003D4948433D4908600DE000203B490860DF
:1009200009E029488068C006C00E401C364948438B
:100930003649086000BF00BF00BF00BF22484030FA
:10094000816B3248006801F069FB3049086010BDD6
:1009500010B51D48803000682D4908431A49803180
:10096000086000201849403108600120486000BF3D
:10097000154840304068C007C00F0028F8D041201B
:10098000114988602348806B80218843214988630E
:1009900000BF0D48C068C007C00F0028F9D0032071
:1009A0000949403108630120486300BF06484030D0
:1009B000406BC007C00F0028F8D001200249403129
:1009C0008863FFF717FF10BD00800440C0270900AF
:1009D00090051000C05C1500F0B31A00200B200039
:1009E000009F2400E0322900C0C62D00509731003E
:1009F000E06735007038390000093D0040164000BE
:100A000080234300C0304600001BB70010000010D8
:100A1000800004000082044010B576480078012868
:100A20000AD17549087800F0A9F9002071490870C9
:100A30006421714801F0EEFA10BD002904D16F4A1B
:100A4000126882436D4B1A60012904D16B4A126807
:100A500002436A4B1A607047002904D1684A126841
:100A60008243674B1A60012904D1654A1268024328
:100A7000634B1A60704700B501218803FFF7ECFF54
:100A8000002101208003FFF7D8FF00BD014605E0EB
:100A9000002000E0401C5B4A9042FBD30A46491EFE
:100AA000002AF5D1704700B501214804FFF7D4FFB3
:100AB00001218804FFF7D0FF0121C804FFF7CCFF14
:100AC000002101204004FFF7B8FF01218804FFF74F
:100AD000B4FF0121C804FFF7B0FF01210803FFF7AD
:100AE000BBFF002101200003FFF7A7FF00BD10B5E9
:100AF0000446002C05DD002101204004FFF79DFF86
:100B000003E001214804FFF798FF10BD10B504462B
:100B1000002C05DD002101208004FFF78EFF03E09B
:100B200001218804FFF789FF10BD10B50446002C91
:100B300005DD00210120C004FFF77FFF03E0012154
:100B4000C804FFF77AFF10BD00B50120FFF7CFFF03
:100B50000120FFF7DBFF0120FFF7E7FF7D20C0004A
:100B6000FFF794FF0020FFF7C2FF0020FFF7CEFF42
:100B70000020FFF7DAFF7D20C000FFF787FF00BDF0
:100B800008B5FFF7E5FE7D20C00000F074FAFFF71E
:100B900072FFFFF7C9FB00F079FAFFF72DFD002087
:100BA000009002E000F09DFA00906846007800286E
:100BB000F8D068460078012819D110480068012152
:100BC000890308430D490860684601780EA0FFF7C5
:100BD000E1FD144800F04FFA08480068012189033C
:100BE00088430649086001E000F04AF8FCE700206D
:100BF00008BD00000C000010B8000010002100A08B
:100C0000002000A061090000464D3137357878207A
:100C100044656D6F20546573742053746172742140
:100C20000D0A00001027000070B505460C46287814
:100C3000C0210840002803D104212046FFF774FD9D
:100C40002878C0210840402807D10321601CFFF705
:100C50006BFD0421601DFFF767FD2878C021084067
:100C600080280CD10321601CFFF75EFD0321601D6D
:100C7000FFF75AFD042120460A30FFF755FD70BDED
:100C80007CB50125002400F0E2FB032000F0A5FA6A
:100C9000002000F095FB22E06A46B34901A801F06C
:100CA00033F80546012D18D10024002001F003F887
:100CB000AE480068A9030843AC490860ACA0FFF740
:100CC00069FDA94901A8FFF7AFFFACA0FFF762FDDE
:100CD0000F21A54801F09EF901E0601CC4B2022C6E
:100CE000DADB7D20C00000F0C6F9A04800680121D1
:100CF000890388439D4908607CBD10B586B000F02B
:100D0000A6FB012000F05CFB032000F066FA04AAB9
:100D100001A905A801F09AF80446012C05D101AA01
:100D200005A904A801F0CFF80446012C21D18F4871
:100D30000068A10308438D49086001A905A801F0D6
:100D4000E9F80446012C09D189A0FFF723FD082109
:100D500001A8FFF7E9FC89A0FFF71CFD7D20C0007A
:100D600000F089F9814800680121890388437F499F
:100D70000860002000F031FA06B010BDF0B58DB06B
:100D800007467FA103C90A9109903B0002F032FB9C
:100D900008E50509265477AEB7E57B48FFF7FAFC6E
:100DA000DFE0032000F019FA002000F009FB0BAA95
:100DB00076490CA800F0A8FF0446012C0AD16CA0CB
:100DC000FFF7E8FC71490CA8FFF72EFF6BA0FFF7B7
:100DD000E1FC02E06EA0FFF7DDFCC2E06F480078A6
:100DE000012801D1002516E06C480078022807D1BF
:100DF0006B484578FF22062109A801F0E6F80AE0D1
:100E000066480078082806DB654845780622811C7C
:100E100009A801F099F8A9105C4B09AA002000F07C
:100E200076FB0446012C03D15EA0FFF7B3FC02E081
:100E30005FA0FFF7AFFC94E058480078012801D18B
:100E4000012505E055480078022801D1544845782D
:100E500005A9284600F028FC0446012C0BD12946A0
:100E600057A0FFF797FC102105A8FFF75DFC43A0F2
:100E7000FFF790FC02E057A0FFF78CFC71E04748B9
:100E80000078012801D1012519E0444800780228A2
:100E90000AD143484578002603E005A88655701C12
:100EA000C6B2102EF9DB0AE03C480078082806DBC1
:100EB0003B4845781022811C05A801F045F805A99A
:100EC000284600F06AFB0446012C0BD1294645A0B8
:100ED000FFF760FC102105A8FFF726FC27A0FFF70D
:100EE00059FC02E044A0FFF755FC3AE02C49487851
:100EF00000F0E1FE044644A0FFF74CFC31E000F0B6
:100F0000A6FA012000F05CFA032000F066F903AABB
:100F1000694604A800F09AFF0446012C05D16A46F0
:100F200004A903A800F0CFFF0446012C04D16946B0
:100F300004A800F0EFFF0446012C0AD10CA0FFF733
:100F400029FC08216846FFF7EFFB0CA0FFF722FC05
:100F500002E033A0FFF71EFC03E034A0FFF71AFC09
:100F600000BF00BF0DB0F0BD1C010010002100A0AB
:100F7000436172645549443A307800000D0A00001C
:100F8000FFFFFFFFFFFF00008C3500002B0100106A
:100F90004E6F2043617264210D0A00000D000010A5
:100FA000B800001041757468204F6B210D0A0000D5
:100FB00041757468206572726F72210D0A0000001D
:100FC000526561642020256420626C6F636B3A3047
:100FD000780000005265616420206572726F722192
:100FE0000D0A0000577269746520256420626C6FD9
:100FF000636B3A307800000057726974652065723F
:10100000726F72210D0A000048616C7420636F6D6D
:101010006D616E64206F7665722E0D0A000000000F
:101020004E6F2063617264210D0A0000496E707575
:1010300074206572726F72210D0A000030B502468D
:101040001346002002E01D785B1C28180C46491E40
:10105000002CF8D130BD30B502460B4615460024B1
:10106000002100BF02E0685C4440491C9942FAD369
:10107000E043C0B230BD05E0002100E0491C6E290C
:10108000FCD3401E0028F7D17047000010B5FFF7D1
:10109000C3F9FE4800680121C9030843FB49086001
:1010A00010BD10B5FA4800680121C9030843F8498A
:1010B00008600320FFF7DFFFF54800680121C9033E
:1010C0008843F34908600520FFF7D5FFF048006822
:1010D0000121C9030843EE4908600A20FFF7CBFF4E
:1010E00010BD08B5FFF7DDFF0C20FFF71BFA0090DD
:1010F00010210C20FFF7F6F90C20FFF713FA0090EF
:10110000F4212720FFF7EEF92720FFF70BFA0090D4
:1011100068460078F42801D0002008BD0120FCE7D3
:1011200070B504462046FFF7FDF90546284670BD18
:1011300070B50546002405E02046FFF7F3F9285571
:10114000601CC4B2402CF7DB012070BD70B50446B2
:101150000D4629462046FFF7C5F9012070BD70B540
:1011600005460C46224609212846FFF7F8F970BDCE
:1011700070B505460C46224609212846FFF710FAAD
:1011800070BDF8B505460C462846FFF7C9FF204359
:10119000074639462846FFF7A5F906463046F8BD0A
:1011A00010B580210A20FFF7ECFF0A20FFF7BAF9FB
:1011B000002801D1012010BD0020FCE7F8B505464C
:1011C0000C462846FFF7ACFFA043074639462846A1
:1011D000FFF7BCFF06463046F8BD70B50446142044
:1011E000FFF79EFF8007800FA04201D1012070BD54
:1011F000002C04D103211420FFF7E0FF0546012C49
:1012000004D101211420FFF7D9FF0546022C04D197
:1012100002211420FFF7D2FF0546032C04D103213D
:101220001420FFF7AEFF05467D20C000FFF723FF27
:101230002846DCE7FFB583B0064600200290019007
:1012400000907F210420FFF781FF80212A20FFF7F3
:101250007DFF0C2E06D00E2E09D1122001901020F9
:10126000009005E0772001903020009000E000BF62
:1012700000BF80220198104301460220FFF766FF5D
:1012800000210120FFF762FF80210A20FFF779FF8C
:10129000002505E00498415D0920FFF757FF6D1C0C
:1012A00005988542F6D331460120FFF74FFF0C2EFB
:1012B00003D180210D20FFF764FF764D00BF04208D
:1012C000FFF72EFF04466D1E002D07D0E007C00F6C
:1012D000002803D1009820400028F0D080210D2064
:1012E000FFF76CFF002D39D00620FFF719FF1B21F7
:1012F0000840002830D10120029001982040C0070A
:10130000C00F002801D0EE2002900C2E26D10A201A
:10131000FFF706FF04460C20FFF702FF47077F0F89
:10132000002F05D0601EC000C1190C98016002E0BA
:10133000E1000C980160002C00D10124402C00DD5C
:101340004024002505E00920FFF7EAFE06994855EC
:101350006D1CA542F7D301E00020029080210D20F2
:10136000FFF72CFF029807B0F0BD70B506460025C8
:1013700000240DE06A00511C3246474B5A43501E70
:1013800000F04CFE044645498C4200D203E06D1C3F
:1013900043488542EED300BFA4B22804010E2A20A0
:1013A000FFF7EFFEE9B22B20FFF7D0FE210A2C2039
:1013B000FFF7CCFEE1B22D20FFF7C8FE012070BD83
:1013C00010B50446002C0FD110210C20FFF7D9FED8
:1013D00040211520FFF7D5FE00211220FFF7B6FEB1
:1013E00000211320FFF7B2FE012C2BD110210C207D
:1013F000FFF7ACFE83211220FFF7A8FE8321132004
:10140000FFF7A4FE00211520FFF7A0FE55211820AC
:10141000FFF79CFE48212620FFF798FE8721252014
:10142000FFF794FE83212720FFF790FE302128202C
:10143000FFF78CFE38212320FFF788FE202129208A
:10144000FFF784FE1E20FFF716FE012010BD10B529
:101450000F210120FFF77AFE10210C20FFF791FEEB
:1014600010BD10B50A4800680121C9038843084926
:1014700008600120FFF7FFFD054800680121C9034E
:1014800008430349086001200CE00000002000A090
:10149000002100A0B80B0000F8340000FFFF00009E
:1014A000FF0F0000FFF7E7FD012010BD10B5012080
:1014B000FFF736FE10210840002804D00120FFF776
:1014C0007DFE002010BD10210120FFF75AFE0120F3
:1014D000F8E70120704710B5044620468030C1B2BD
:1014E0000F20FFF733FE0F20FFF71AFE10BD70B577
:1014F00004460D4620464030C1B20F20FFF726FEBD
:101500002846C030C1B20F20FFF720FE70BDFFB5E6
:1015100087B0064614461D46002E02D1602069465B
:101520000874012E02D1612069460874089880066B
:10153000010E68464174217881746178C174A17884
:101540000175E1784175217981756179C1752978D5
:10155000017669784176A9788176E978C1760120AB
:10156000FFF703FFFFF71CFE02A803AB0C2204A940
:1015700000900E20FFF75EFE0746012F0BD10820DA
:10158000FFF7CEFD08210840002802D001200BB053
:10159000F0BD0020FBE70020F9E770B588B00446F5
:1015A0000E460120FFF7E1FEA02168460174447455
:1015B000FFF7F6FD02A803AB022204A900900C205D
:1015C000FFF738FE0546012D01D0012000E0002084
:1015D0006946097B0907090F0A2901D0012100E0AA
:1015E00000210843002802D0002008B070BD05206B
:1015F000FFF7BBFEFFF7D4FD02A803AB1022314674
:1016000000900C20FFF716FE0546012D01D00120A9
:1016100000E000206946097B0907090F0A2901D06B
:10162000012100E000210843002801D00020DCE770
:101630000120DAE77FB505460C46E178684601707F
:10164000A1784170617881702178C170E078C043E1
:10165000C1B268460171A078C043C1B26846417109
:101660006078C043C1B2684681712078C043C1B27E
:101670006846C171E1780172A17841726178817226
:101680002178C1720573E843C1B26846417385731E
:10169000E843C1B26846C17369462846FFF77DFF3B
:1016A0000646304604B070BDFEB504460D46012026
:1016B000FFF75BFE3021684601724472FFF770FD50
:1016C00001A82B46022202A900900C20FFF7B2FDD0
:1016D0000646012E01D0012000E00020019980295A
:1016E00001D0012100E000210843002801D00020A2
:1016F000FEBD0120FCE77FB504460E460520FFF73E
:1017000034FEC121684601734473FFF749FD01A807
:1017100002AB022203A900900C20FFF78BFD0546C7
:10172000012D01D0012000E000206946097A090757
:10173000090F0A2901D0012100E0002108430028F7
:1017400002D0002004B070BD0520FFF70EFEFFF7A9
:1017500027FD01A802AB0422314600900C20FFF7C0
:1017600069FD2846EEE77FB504460E460520FFF7E3
:10177000FCFDC021684601734473FFF711FD01A809
:1017800002AB022203A900900C20FFF753FD05468F
:10179000012D01D0012000E000206946097A0907E7
:1017A000090F0A2901D0012100E000210843002887
:1017B00002D0002004B070BD0520FFF7D6FDFFF772
:1017C000EFFC01A802AB0422314600900C20FFF789
:1017D00031FD2846EEE77FB504460520FFF7C5FD3D
:1017E000B021684601734473FFF7DAFC01A802AB2D
:1017F000022203A900900C20FFF71CFD0546012DD5
:1018000001D0012000E000206946097A0907090F8C
:101810000A2901D0012100E000210843002802D05C
:10182000002004B070BD2846FBE77FB504460520C4
:10183000FFF79BFDC221684601734473FFF7B0FCBC
:1018400001A802AB022203A900900C20FFF7F2FCD2
:101850000546012D01D0012000E000206946097AEB
:101860000907090F0A2901D0012100E000210843DE
:10187000002802D0002004B070BD0520FFF775FDE0
:1018800000216846017341738173C173FFF788FCBF
:1018900001A802AB042203A900900C20FFF7CAFCA8
:1018A0002846E8E77FB5044680211220FFF786FC32
:1018B00080211320FFF782FC08211320FFF761FC31
:1018C00008210846FFF77AFC07210D20FFF73EFCB0
:1018D000262003900120FFF748FDFFF761FC01A8D7
:1018E00002AB012203A900900C20FFF7A3FC0546E0
:1018F000012D08D10198102805D16846007A207082
:101900006846407A6070284604B070BD7FB50446D2
:1019100080211220FFF752FC80211320FFF74EFC9C
:1019200008211320FFF72DFC08210846FFF746FC8D
:1019300007210D20FFF70AFC522003900120FFF73A
:1019400014FDFFF72DFC01A802AB012203A90090B2
:101950000C20FFF76FFC0546012D08D101981028D7
:1019600005D16846007A20706846407A6070284643
:1019700004B070BDFFB504461E46099D3178631E54
:10198000E85C019F3B0001F035FD0805090E1318C6
:101990001D22272C0020631CDCB223E0FE2319400B
:1019A000C007C00F1EE0FC2319408007800F19E01C
:1019B000F82319404007400F14E0F02319400007B6
:1019C000000F0FE0E0231940C006C00E0AE0C0235C
:1019D00019408006800E05E0802319404006400E25
:1019E00000E000BF00BF03460B43671EEB5501221A
:1019F00005E0B35C671EBF18EB55531CDAB2029BBF
:101A00009A42F6DBFFBD70B505460E4614462B0024
:101A100001F0F0FC0504070A0D10130020202070CF
:101A20000CE03020207009E04020207006E05020BB
:101A3000207003E06020207000E000BF00BF330092
:101A400001F0D8FC08050A131C252E374049002157
:101A50000D20FFF77BFB3FE011210D20FFF776FB08
:101A6000207801210843207036E022210D20FFF765
:101A70006DFB20780221084320702DE033210D20DA
:101A8000FFF764FB207803210843207024E0442101
:101A90000D20FFF75BFB20780421084320701BE03A
:101AA00055210D20FFF752FB2078052108432070B7
:101AB00012E066210D20FFF749FB2078062108433C
:101AC000207009E077210D20FFF740FB20780721E7
:101AD0000843207000E000BF00BF70BDF3B58DB0BB
:101AE0000C460027002004900390029005900025EA
:101AF00080211220FFF762FB80211320FFF75EFB9D
:101B000008210846FFF75AFB00210D20FFF71EFBB6
:101B100080210E20FFF752FB08A90D9808712020A4
:101B200048710520FFF721FC05A806AB022209A990
:101B300000900C20FFF77EFB0C900C98012808D138
:101B4000002604E006A8805DA055701CC6B2052ED4
:101B5000F8DB059D0C9802285CD16805070E680724
:101B6000400F04906807400F002801D0781CC7B2CE
:101B70003A4606A9204600F0E7F90398C019C0B21A
:101B800003900498029042E008A90D980871039907
:101B9000491EC8B209AA01320299FFF734FF3A463A
:101BA000214609A8023000F0CFF90520FFF7DDFB40
:101BB000FFF7F6FA05A80090B81CC2B206AB09A957
:101BC0000C20FFF737FB0C9005984005070E059891
:101BD0004007400F04900498002801D0781CC7B239
:101BE00006AB3A46009402990398FFF7C3FE0598A6
:101BF0002D186805000E03906807400F02906807D3
:101C0000400F002803D00398401CC0B203900C98EA
:101C10000228B9D0207861784840A1784840E1781E
:101C200048402179884201D000200C900C980FB0D8
:101C3000F0BDF7B586B007460C4600210D20FFF732
:101C400085FA80211220FFF79CFA80211320FFF7EC
:101C500098FA08210846FFF7B1FA68460774702120
:101C60004174002505E0615D04AAA81C1154681C9C
:101C7000C5B2052DF7DB207861784840A17848404F
:101C8000E1784840694688750120FFF76EFBFFF751
:101C900087FA01A802AB072204A900900C20FFF7E5
:101CA000C9FA0646012E03D16846017A08980170E8
:101CB000304609B0F0BD7FB5044650216846017337
:101CC000002141730D20FFF741FA80211220FFF718
:101CD00058FA80211320FFF754FA002C03D1082171
:101CE0000846FFF76BFA0120FFF73FFBFFF758FAB2
:101CF00001A802AB022203A900900420FFF79AFA80
:101D00000546284604B070BDF8B506460D46174690
:101D10003046FFF7C7FD0446002C00D1F8BD3078EF
:101D2000C0210840002810D129469320FFF7D6FE95
:101D30000446002C00D1F1E73A4629469320FFF7EC
:101D400078FF0446002C00D1E8E73078C021084035
:101D5000402821D129469320FFF7C0FE0446002CDD
:101D600000D1DBE73A4629469320FFF762FF04469D
:101D7000002C00D1D2E7691D9520FFF7AFFE044685
:101D8000002C00D1CAE77A1C691D9520FFF751FF8E
:101D90000446002C00D1C1E73078C02108408028DB
:101DA00034D129469320FFF799FE0446002C00D138
:101DB000B4E73A4629469320FFF73BFF0446002C40
:101DC00000D1ABE7691D9520FFF788FE0446002C83
:101DD00000D1A3E77A1C691D9520FFF72AFF04466E
:101DE000002C00D19AE729460A319720FFF776FEAA
:101DF0000446002C00D191E7BA1C29460A319720ED
:101E0000FFF717FF0446002C00D187E7204685E73F
:101E100070B586B005460A20FFF7A7FA502069463C
:101E20000874002404E0295D04AA601C1154C4B2A3
:101E3000042CF8DB02A803AB052204A900900C20B7
:101E4000FFF7F8F90646304606B070BDFEB5054608
:101E50000C4616460A20FFF788FA052168460171EC
:101E600000214171082181712346032201A90C2020
:101E70000095FFF7DFF90746012F04D10422611C0A
:101E8000304600F061F83846FEBDFEB505460C460A
:101E900016460A20FFF769FA0521684601710021FC
:101EA000417181712346032201A90C200095FFF79F
:101EB000C1F90746012F04D10422611C304600F00D
:101EC00043F83846FEBDF7B584B005460E461420EB
:101ED000FFF74BFA1D2069460871002404E0295DD4
:101EE00001AA601C1154C4B2042CF8DB002168461E
:101EF0004172082181720121C17202210173009691
:101F0000092201A90C20069BFFF794F907463846E1
:101F100007B0F0BDFEB504460D460F20FFF725FAC9
:101F20000021684601713621417100218171C17122
:101F3000082101722B46052201A90C200094FFF70D
:101F400079F906463046FEBDF8B5042A2CD383073E
:101F500012D00B78491C0370401C521E83070BD013
:101F60000B78491C0370401C521E830704D00B7869
:101F7000491C0370401C521E8B079B0F05D0C91AC9
:101F8000DF002023DE1B08C90AE0FEF769F9F8BD6F
:101F90001D4608C9FD401C46B4402C4310C0121F0A
:101FA000042AF5D2F308C91A521EF0D40B78491C42
:101FB0000370401C521EEAD40B78491C0370401C6D
:101FC000012AE4D409780170F8BDD2B210B5130229
:101FD0009A1813049A1800F00EF810BD01E004C01E
:101FE000091F0429FBD28B0701D50280801CC90779
:101FF00000D00270704700290BD0C30702D00270D6
:10200000401C491E022904D3830702D50280801C8C
:10201000891EE3E70022EEE70022DFE70022030942
:102020008B422CD3030A8B4211D300239C464EE0F3
:1020300003460B433CD4002243088B4231D30309AF
:102040008B421CD3030A8B4201D394463FE0C30961
:102050008B4201D3CB01C01A524183098B4201D379
:102060008B01C01A524143098B4201D34B01C01A64
:10207000524103098B4201D30B01C01A5241C308DC
:102080008B4201D3CB00C01A524183088B4201D34B
:102090008B00C01A524143088B4201D34B00C01A37
:1020A0005241411A00D201465241104670475DE04C
:1020B000CA0F00D04942031000D3404253400022CF
:1020C0009C4603098B422DD3030A8B4212D3FC2278
:1020D000890112BA030A8B420CD3890192118B42F7
:1020E00008D3890192118B4204D389013AD092110D
:1020F00000E08909C3098B4201D3CB01C01A5241C8
:1021000083098B4201D38B01C01A524143098B4290
:1021100001D34B01C01A524103098B4201D30B0179
:10212000C01A5241C3088B4201D3CB00C01A52419E
:1021300083088B4201D38B00C01A5241D9D2430885
:102140008B4201D34B00C01A5241411A00D20146C2
:10215000634652415B10104601D34042002B00D52C
:102160004942704763465B1000D3404201B50020EE
:10217000C046C04602BD70B5044685690068C10608
:1021800001D5302600E02026C00707D070BD626868
:102190003046A1689047206A401C20626D1EF6D52B
:1021A00070BD70B5044685690078C00707D170BD61
:1021B0006268A16820209047206A401C20626D1E42
:1021C000F6D570BD09684A0501D540B27047C9050A
:1021D000FCD500B2704709684A0501D5C0B2704706
:1021E000C905FCD580B2704770B50C460546012A7A
:1021F00005D02878800600D5EA69002302E0012393
:1022000005E05B1C934202D2E05C0028F9D1A8698A
:10221000E618C01AA861286AC01828622846FFF785
:10222000AAFF04E06A682078A968641C9047B44259
:10223000F8D32846FFF7B5FF70BD0000F7B50025BD
:1022400075291068009914A611D0FFF7BBFF00286C
:1022500002DA404211A608E0009909688A0701D510
:102260000FA602E0490704D50EA6012501E0FFF7FD
:10227000B2FF009F0024243704E000F013FD30314A
:102280003955641C0028F8D12B4632462146009867
:1022900000F057FAFEBD0000000000002D00000015
:1022A0002B0000002000000011680268006A53053E
:1022B00001D5087009E0D30501D5088005E01306B3
:1022C00002D5C21705C100E0086001207047000078
:1022D00001694A1C02610878704700B58FB002910D
:1022E0000021059105490193794403911146049019
:1022F000684600F025F90FB000BD0000E5FFFFFFC4
:102300000A681070521C0A6070470000F7B5044656
:10231000154686B02B487844002703C83E460090F7
:10232000019111E007986A467100415A02A800F035
:1023300099FC411C07D02178890603D5E269391838
:1023400091420ED83F18761C2078800602D5E069AD
:10235000B84206DDAE42E5DB07987100405A00281E
:10236000E0D1A069C01BA0612046FFF704FF15481B
:1023700078445A3803C800900020019116E04100CB
:102380006A460798415A02A800F06CFC0590401C70
:102390000AD0002505E0626802A8A168405D904768
:1023A0006D1C05988542F6D30498401CB0420490F9
:1023B000E5DB206AC01920622046FFF7F2FE09B073
:1023C000F0BD00009A110000F7B5D21D0025D2081B
:1023D00015A6D200F52905CA11D0002A05DA002178
:1023E0004042914111A60A4608E0009909688B070E
:1023F00001D50FA602E0490701D50EA60125114619
:10240000009F0024243704E000F05EF930323A5592
:10241000641C02460A43F7D12B46324621460098F7
:1024200000F08FF9FEBD0000000000002D0000004C
:102430002B0000002000000070B504460021243469
:1024400008E05507D2086D0F303565545D072A4303
:10245000DB08491C15461D43F3D10468002310A274
:10246000250708D520252C400C4304D0C46901233E
:102470000CA2641EC46100F064F970BD10B504467E
:1024800021461068FFF7A7FE002302462046FFF70B
:10249000D3FF10BDD21DD108C9000CC9CCE7000084
:1024A0000000000030000000F8B50F460188090563
:1024B00002D5224C7C4402E0204C7C440E3405467C
:1024C0000021243508E016071209360FA65D6E5468
:1024D0001E0732431B09491C16461E43F3D12246F0
:1024E00004780023240705D5702F06D0002901D0D9
:1024F0000223113200F025F9F8BD01231032F9E76B
:1025000070B504460D4621461068FFF764FE0023AF
:10251000024629462046FFF7C7FF70BDD21DD308EB
:10252000DB000CCBC0E730B40368202412682343DF
:1025300003600823C36130BC0023B5E7041000002A
:10254000F3B50446002081B020622046E168884748
:10255000002872D0252802D06268A168ABE0594FEC
:1025600000267F442046E16888472028054608DB8E
:10257000312D06D2781920380078002801D0064382
:10258000F0E7B00701D5042086430020E06107464C
:10259000A0612A2D0AD0284600F050FF002827D03D
:1025A000B8000019303D0090856119E00298BA002A
:1025B000121902C8916102902046E1688847012FF4
:1025C000054617D1E06900281FDA202086431CE069
:1025D00000980A2180694843009940193038886181
:1025E0002046E1688847054600F028FF0028EFD123
:1025F000012F0AD02E2D08D12046E16888470546D4
:10260000202006437F1C022FC3DBA069002803DAC9
:102610004042A06101200643F00701D0102086430C
:102620006C2D0BD0682D09D04C2D3CD06A2D38D0A4
:10263000742D38D07A2D36D016E040E0E1682F4670
:1026400020468847B842054609D16C2F29D0012081
:102650008002E168064320468847054604E06C2F67
:102660001DD0FF2001300643002D28D028464138D8
:10267000192803D80120C0020643203520462660D1
:102680002946029A1646FDF759FD002810D0012868
:102690000BD0F61DF008C0000830029055E740202E
:1026A000E1E78020D5E70020D3E7361D02964CE70E
:1026B00062682846A1689047206A401C44E7206A67
:1026C000FEBD00007E0F00000B4670B50246890774
:1026D0008008084319469D08141AA94125090807CE
:1026E000054308092C194841250A01060D43010A32
:1026F0002C194141200C0D0428430D0C00194D41AB
:10270000002140194D41C00869070843E908840FBA
:102710008D002543840024184D4124196D41121B5E
:10272000AB4107E00925ED432C1152196341002408
:10273000401C61411C460A250026551BB441F1D2BC
:1027400070BDFFB504460D4681B02430009021686D
:10275000880604D51022E0699143216000E0012041
:10276000A84201DD471B00E000270498A1697A19FF
:102770001018081AA0612078C00602D42046FFF77E
:10278000FAFC002608E003986268A168805D904723
:10279000206A401C761C206204988642F3DB207875
:1027A000C0060AD52046FFF7E6FC06E06268A1688D
:1027B00030209047206A401C206238467F1E002847
:1027C000F4DC07E000986268A168405D9047206AE9
:1027D000401C206228466D1E0028F3DC2046FFF7CF
:1027E000E0FC2078000602D5022005B0F0BD0120F3
:1027F000FBE700007047FFB50C461E468FB003CACA
:10280000089009914F007D0D00D16D1E00210846F2
:102810000020C0460321099A89050840002A03DAEE
:102820008200801840080840800D01280A9002DDCF
:102830000020C0430A90089807430DD0EF48F049A4
:10284000281848430714189800281DD07542291EDF
:102850001DDD0A9842421BE01898012802D0002092
:10286000302104E00020F24305E02154401CB04236
:10287000FBDB30460022189B002121540F998B600E
:102880000A60486013B0F0BDBD1B6D1CDFE70A9AFB
:10289000002900DA69420BA800F088FA0BAB07CBDD
:1028A00003AB07C30899099800F0E4FA6B4607C325
:1028B0000146D4480918002D00910ADDD14903983A
:1028C0000A9A4942401803A90390684600F0F7FCB1
:1028D00007E003990A9A081803A90390684600F0D4
:1028E000C4FC6B4607C30004000C03D00020C043A7
:1028F000410800E01046189A002A03D000220092F6
:1029000015461EE0751E05D4FFF7DEFE3032625517
:102910006D1EF9D501220843079602D000227F1CC4
:1029200004E02078302801D100227F1E002A06977B
:1029300089D01EE0112D07DAFFF7C6FE303262554E
:102940006D1C02460A43F5D1084303D000980028C5
:1029500019D00EE00021681E05E0235C625C635420
:102960002254401E491C8142F7DBA81B401E0795DC
:102970000690079A18990020A0540F98079B069A72
:1029800081600CC07EE71126002018905BE7D21D05
:10299000F0B50D460446D10893B0C90003C90C90A8
:1029A0000D9100F035FD02460D98C00F01D02D208D
:1029B00007E02068810701D52B2002E04007C00F07
:1029C0004001032A0F9001D0072A05DB0346294660
:1029D000204600F0A7F90EE12078800601D5E769CE
:1029E00000E006272846652D04D0662814D0672D00
:1029F00069D12DE00020112F009001DB112300E0B0
:102A00007B1C0CAA03A910A8FFF7F5FE119900265C
:102A100010987D1C0E9142E001203B460CAAC00795
:102A20000B900120009003A910A8FFF7E4FE119D70
:102A300012981099002600280E9501D1781C0D18C7
:102A4000781B02D446427D1C761EE81B00903AE0BB
:102A5000012F00DA01270020112F009001DD112342
:102A600000E03B460CAA03A910A8FFF7C4FE119989
:102A70003D46109800260E91217809070BD40E9937
:102A8000A94200DA0D4603A9012D04DD4A19203AB6
:102A9000D27F302A06D0B84201DA011D04DA0121C2
:102AA00000910FE06D1EEFE7002802DC86192D1A59
:102AB00003E0411CA94200DD0D46801B401C009034
:102AC0000120C0070B902078000705D40098A84289
:102AD00002DB0020C043009069460020C8720B98BA
:102AE000012102AF0337C907884225D00220109088
:102AF0002B2011900B9800280BDA40420B902D20D0
:102B0000119006E00B9800F0CDF830317F1E0B904D
:102B100039701099481E00291090F3DC0B9800289A
:102B2000F0D111987F1E38702088000501D545200E
:102B300000E065207F1E387001A8C01BC01D0B90EF
:102B40000F98002800D0012041190098C0170918DB
:102B50000B980818A169081A401EA0612078C006C9
:102B600002D42046FFF707FB0F98002805D06268C3
:102B7000A1689047206A401C20622078C00625D5B5
:102B80002046FFF7F8FA21E0002E07DB0E98B0424E
:102B900004DD03A86268805DA16802E06268A16844
:102BA00030209047206A761C401C20620098401E0E
:102BB000002800900AD100F0B1F8C068626801688E
:102BC000405CA1689047206A401C206228466D1E28
:102BD0000028D9DC07E062683878A1687F1C90473C
:102BE000206A401C20620B99481E00290B90F2DCE1
:102BF0002046FFF7D6FA032044E6000001FCFFFF61
:102C0000104D0000E1DFFFFF10B54369002B02D03B
:102C1000C046C04601E0FFF7E7FA012010BD127878
:102C2000014624310A7000224A700122ECE7116843
:102C30000022D243E8E710B54369002B02D0C0461A
:102C4000C04601E0FFF762FB012010BD128801467B
:102C5000243182840022C2840122ECE71168002220
:102C6000D243E8E770B516460C46054600F04EF82C
:102C70000368FF200230C05C012807D0FF2C0ED86B
:102C8000185D00280BD001202C7070BDFF33324638
:102C9000214608331868C3182846984770BD00209D
:102CA000C04370BD01468008081A02091018020AC4
:102CB0001018020C1018C008820012185200891A4D
:102CC00001E0401C0A390A29FBD27047754600F022
:102CD0002BFBAE46050069465346C008C00085463A
:102CE00018B020B5FDF7E2FA60BC00274908B646E7
:102CF0000026C0C5C0C5C0C5C0C5C0C5C0C5C0C50B
:102D0000C0C5403D49008D467047000010B500F039
:102D100005F8001D10BD00BF6107000000487047A6
:102D20005C010010F8B51F46044601230068DB0271
:102D3000032601461840072A05DB002801D017A505
:102D400006E017A504E0002801D016A500E016A5AE
:102D5000102081432160A069C01E002FA06101D016
:102D6000401EA0612046FFF706FA002F09D0384622
:102D70006268A1689047206A401C2062C01C2062E3
:102D800006E0206AFAE762682878A1686D1C90471F
:102D9000761EF8D22046FFF704FAF8BD4E414E00E9
:102DA0006E616E00494E4600696E6600F7B51646C4
:102DB0008AB02F4878446C4603467C33C06F5A680B
:102DC0009B680DC42A487844763003AC0DC80DC406
:102DD0003720C001081837211B30FFF729F90546B5
:102DE0000C46803D1B3C02D56442012000E00020DF
:102DF000002709900FE0E0070BD00C201C49784316
:102E0000794432464C394118684600F02EFA6B4638
:102E100007C364107F1C002CEDD1154F7F442C3F5D
:102E200015E0E80711D02001C0190EC806910893DB
:102E300007920068F04201D198190890324606A91D
:102E400003A800F012FA03AB07C36D10641C002D39
:102E5000E7D1324669460998002803A802D000F05D
:102E60002EFA01E000F001FA0A9B07C30DB0F0BD95
:102E700040070000034640000A4610B5400D0BD045
:102E80000121C9070F24A40200191C03640821436F
:102E9000540D2143D20207E000210120F2E7D40FB4
:102EA000490021435200401E0029F8DADB0FDB07FE
:102EB000184310BDFFB50D46144685B048685168EB
:102EC00000F080FA00910190A868A16800F07AFAF9
:102ED00002910390A868616800F074FA029A1218CF
:102EE0008242029201D2012000E00020019A0B18D8
:102EF000D2180028019202D08A4202D903E08A4205
:102F000001D2012000E000200099081800906868B4
:102F1000A16800F057FA029A12188242029201D276
:102F2000012000E00020019A0B18D218002801921D
:102F300002D08A4202D903E08A4201D2012000E095
:102F40000020009908180090286821684000490076
:102F5000400849084018EE49471814E0019940001C
:102F6000C90F08430090019802994000C90F084317
:102F70000190029803994000C90F084302900398FA
:102F800040007F1E039000980028E7DA0898002888
:102F900001D0E04E00E00026B74228DAF71BF80621
:102FA000C00E15D0029B2021091A039A8B401A43A8
:102FB0000392029A019BC2408B401A430292019AEB
:102FC000009BC2408B4000991A430192C14000917E
:102FD0007A110BD06B460320811A01D5002101E044
:102FE000890059588700401ED951F5D537460398B6
:102FF0000299002800D0012001430898029100287E
:1030000008460CD0002800D001200199019A4905FA
:1030100008430121D20AC902D202019200E0012133
:103020000E9B0122D207012B02D0002B03D013E00C
:10303000002807D116E0904204D890420CD1019BA1
:103040000B4209D0019B5918019105D10099491CE7
:10305000009101D17F1C0092002803D01021084666
:103060000020C04628682168019B009A4840C10F93
:103070000598C90739430EC009B0F0BDFFB587B048
:10308000099A089808995368926840688968964632
:103090000022039317469446089A12685300099A2F
:1030A0005B081268520052089A1A9B4BD4180A9A6D
:1030B000002A01D0352200E040220692002201239E
:1030C00015460492DB07059324E0002D05D17546D3
:1030D0000346039E4D1BB34109D375466646039BC9
:1030E000491B049D9841059B7519AC465F41634699
:1030F0003B4308D0059B049EDD0776082E435B0802
:103100000496059301E0521E641EC50FED07491891
:103110004041521C069B9A42D7DB002D04D17546D4
:10312000039A6B1A824101D203200CE0039A0B46EA
:103130006B404240134303D0014303D0012002E01F
:10314000022000E0002061460191002100970291D9
:103150000A99002905D06146400201436D4B019157
:1031600002E08007002302909C423ADA1A1BD00644
:10317000C00E15D0029D2021019C091AC5408C402B
:103180002543029C8C4000D001242543019C0295DC
:103190003D46C4408D4039462C43C14001940091C6
:1031A00054111DD06D460221002202290CD10320AA
:1031B000001B07E0002804DB8600AE59002E00D07B
:1031C0000122401C0328F5DB081B02D588002A5089
:1031D00004E08000285810438A00A850491EE3D517
:1031E0001C460A98002802980CD0002800D0012024
:1031F0000199019A490508430121D20AC902D20264
:10320000019200E00121109B0122D207012B02D084
:10321000002B03D013E0002807D116E0904204D819
:1032200090420CD1019B0B4209D0019B591801918E
:1032300005D10099491C009101D1641C009200281D
:1032400003D0102108460020C04608980999019A29
:103250000068096848400099C30F0798DB072343BB
:103260000360826041600BB0F0BD1FB50023009287
:103270000A46014601A8FFF71DFE01AB07CB04B0CB
:1032800010BD1FB5012300920A46014601A8FFF7B1
:1032900011FE01AB0F2407CBA402C30F4000DB07D4
:1032A0004008001B002900DB0020490000054908F8
:1032B000CC0A204349051843D20A1143DFE71FB562
:1032C000002300920A46014601A8FFF7D7FE01AB92
:1032D00007CBD4E71FB5012300920A46014601A897
:1032E000FFF7CCFE01AB0F2407CBA402C30F4000B5
:1032F000DB074008001B002900DB00204900000517
:103300004908CC0A204349051843D20A1143B6E7BD
:1033100002C0FFFF013C0000FF3F00000446C04622
:10332000C0462046FCF796FF004870473C0100105D
:10333000024670B50A4392072AD11E4DEE0104C819
:1033400008C9541B9443344017D0D0B2D9B2401AA4
:103350002106014310D190B299B2401A21040143D1
:103360000AD110021902000A090A401A2102014377
:1033700002D1100E190E401A70BD9A42DFD010BA59
:1033800019BA884201D9012070BD0020C04370BD28
:1033900002780B78401C491C002A09D09A4207D1B8
:1033A00002780B78401C491C002A01D09A42EFD0C9
:1033B000D01A70BD0101010101491820ABBEFEE722
:1033C00026000200F8B5040C8BB2264682B25E439A
:1033D000104658430D0C370C360400218019164650
:1033E00079416E43370C36048019264679416E4385
:1033F0008919F8BD30B47446641E2578641CAB424C
:1034000004D3635D5B00E31830BC18471D46F8E742
:103410004900CA020243100000D004204A0D01D026
:1034200001221043044A490D914201D1022108436F
:10343000012800D105207047FF07000030380A2816
:1034400001D20120704700207047000010B500290C
:103450000AD00878002807D005487844FFF768FFAD
:10346000002801D0002010BD0248784410BD0000A3
:10347000A60100009E01000010B500290AD00878BE
:10348000002807D005487844FFF752FF002801D0F4
:10349000002010BD0248784410BD000096010000D5
:1034A0008E01000003B402487844844603BC6047A0
:1034B000E3F4FFFF00000000000000003031323371
:1034C0003435363738394142434445464030580058
:1034D000303132333435363738396162636465668A
:1034E00040307800040000080000000000000002E6
:1034F000000100001000000002400000000000A0D9
:103500000000000005400000000000C800000000AE
:103510000C4000000000409C00000000194000002A
:103520000020BCBE0000000034400000BFC91B8E5C
:1035300000000004B5400000504BCFD06607E2CF3A
:10354000010000006C4100003E8251AADFEEA7346A
:1035500001000000D9420000DCB5A0E23A301F971C
:10356000FFFFFFFFB4450000FD25A0C8E9A3C14F40
:10357000FFFFFFFFFF3F0000000000800000000091
:10358000FF3F00000000008000000000464D313782
:1035900035353044656D6F2056312E302032303154
:1035A000362F30332F31362E0D0A537570706F72EF
:1035B000742049534F3134343433412F4D6966619F
:1035C00072652F422E0D0A537570706F7274204908
:1035D000534F31383039322F4E46430D0A00000028
:1035E0002C3700000000001014000000040100004F
:1035F00040370000140000108C0300002001000080
:103600001C00000043000000F8FFFFFF0C0000005A
:103610000E0000000F0000002E000000100100004E
:1036200043000000F8FFFFFF0040404040404040A2
:103630004040414141414140404040404040404085
:103640004040404040404040400502020202020229
:103650000202020202020202022020202020202078
:10366000202020020202020202029090909090908C
:10367000101010101010101010101010101010104A
:1036800010101010020202020202888888888888BE
:1036900008080808080808080808080808080808AA
:1036A00008080808020202024000000000000000B2
:1036B000000000000000000000000000000000000A
:1036C00000000000000000000000000000000000FA
:1036D00000000000000000000000000000000000EA
:1036E00000000000000000000000000000000000DA
:1036F00000000000000000000000000000000000CA
:1037000000000000000000000000000000000000B9
:1037100000000000000000000000000000000000A9
:103720000000000000000000000000000000000099
:1037300000000000000000000000000000366E01E4
:04000005000002995C
:00000001FF
