:020000040000FA
:10000000F011001081010000910100008901000041
:1000100000000000000000000000000000000000E0
:100020000000000000000000000000008B01000044
:1000300000000000000000008D0100008F010000A2
:10004000910100009101000000000000B1090000D2
:100050003B0A0000C50A00000000000091010000FA
:100060009101000091010000910100009101000048
:100070009101000091010000910100009101000038
:100080009101000091010000910100009101000028
:1000900091010000910100009101000000000000AA
:1000A0009101000091010000910100009101000008
:1000B00091010000910100009101000091010000F8
:1000C00000F002F800F030F80CA030C8083824180E
:1000D0002D18A246671EAB4654465D46AC4201D180
:1000E00000F022F87E460F3E0FCCB6460126334282
:1000F00000D0FB1AA246AB46334318473415000024
:10010000541500000023002400250026103A01D3D6
:1001100078C1FBD8520700D330C100D50B607047BF
:100120001FB51FBD10B510BD00F0A8F81146FFF7B0
:10013000F7FF01F03FF900F0C0F803B4FFF7F2FF5A
:1001400003BC00F0C5F8000070B505460C46164625
:1001500002E00FCC0FC5103E102EFAD2082E02D3AB
:1001600003CC03C5083E042E07D301CC01C5361FBE
:1001700003E021782970641C6D1C761EF9D270BDD5
:100180000748804707480047FEE7FEE7FEE7FEE72F
:10019000FEE7000004480549034A054B704700008C
:1001A0005D040000C1000000F00F0010F01100100D
:1001B000F00F0010F8B5042A2CD3830712D00B7867
:1001C000491C0370401C521E83070BD00B78491C3E
:1001D0000370401C521E830704D00B78491C037027
:1001E000401C521E8B079B0F05D0C91ADF0020232D
:1001F000DE1B08C90AE0FFF7A7FFF8BD1D4608C9C6
:10020000FD401C46B4402C4310C0121F042AF5D2F6
:10021000F308C91A521EF0D40B78491C0370401C15
:10022000521EEAD40B78491C0370401C012AE4D406
:1002300009780170F8BD01E004C0091F0429FBD250
:100240008B0701D50280801CC90700D0027070475F
:1002500000290BD0C30702D00270401C491E02299E
:1002600004D3830702D50280801C891EE3E70022A5
:10027000EEE70022DFE7704770477047754600F0F1
:1002800023F8AE46050069465346C008C0008546BF
:1002900018B020B5FFF77EFF60BC00274908B646BE
:1002A0000026C0C5C0C5C0C5C0C5C0C5C0C5C0C585
:1002B000C0C5403D49008D4670470446C046C04613
:1002C0002046FFF73AFF0000004870478C0F0010EF
:1002D00001491820ABBEFEE726000200704730B48B
:1002E0007446641E2578641CAB4204D3635D5B00D6
:1002F000E31830BC18471D46F8E70000FFFFFFFF7A
:1003000010B500247348406AC005000F0300FFF7D2
:10031000E6FF10090B0D0F11131517191B1D1F21D7
:100320002325272900241DE06B4C1BE06B4C19E0B2
:100330006B4C17E06B4C15E06B4C13E06B4C11E011
:100340006B4C0FE06B4C0DE06B4C0BE06B4C09E021
:100350006B4C07E06B4C05E06B4C03E06B4C01E031
:100360006B4C00BF00BF5B48406AC006800E811C1A
:10037000204601F07FF8044656484030006B800765
:10038000800F002806D0012808D0022826D0032894
:1003900059D126E05F486049086054E04D4840303C
:1003A00000688007800F002806D0012808D00228A6
:1003B0000AD0032810D10BE05648574908600BE0DB
:1003C00054485549086007E000205349086003E09D
:1003D00050485149086000BF00BF34E04E480460F7
:1003E00031E03C48403000688007800F002806D08C
:1003F00001280ED0022816D0032822D117E0354854
:100400008068C006C00E401C42494843424908600B
:1004100017E030488068C006C00E401C3D49484384
:100420003D4908600DE000203B49086009E029488B
:100430008068C006C00E401C3649484336490860F3
:1004400000BF00BF00BF00BF22484030816B324870
:10045000006801F00FF83049086010BD10B51D4864
:10046000803000682D4908431A4980310860002017
:100470001849403108600120486000BF15484030ED
:100480004068C007C00F0028F8D04120114988609B
:100490002348806B802188432149886300BF0D4831
:1004A000C068C007C00F0028F9D0032009494031B7
:1004B00008630120486300BF06484030406BC00716
:1004C000C00F0028F8D00120024940318863FFF7AF
:1004D00017FF10BD00800440C027090090051000E0
:1004E000C05C1500F0B31A00200B2000009F240010
:1004F000E0322900C0C62D0050973100E06735007A
:100500007038390000093D00401640008023430048
:10051000C0304600001BB70000000010800004003F
:1005200000820440014605E0002000E0401CFA4A39
:100530009042FBD30A46491E002AF5D17047F7487E
:100540000068012149020843F4490860F3488038F3
:10055000406849158843F149803948600846406839
:1005600049150843ED49803948600020EC4908608E
:100570007047EC494143EA4AD16000BFE849096845
:10058000022211400029F9D0E54909681143E44AE3
:100590001160E5490968491CE34A11607047DF486A
:1005A000006840210843DD49086008460068802152
:1005B0000843DA490860DD4800680121090508435D
:1005C000DA490860DA480068C9010843D849086078
:1005D000D6480068012149050843D4490860D44839
:1005E000006809020843D2490860D0480068012128
:1005F00009060843CD490860CD480068C902084390
:10060000CB490860C948006802210843C74908600F
:10061000C748006802210843C549086070470120A7
:10062000C449C86070470120C24908617047C14889
:10063000C06804210843BF49C8607047BD480069CD
:1006400004210843BB4908617047BB48C0680421C6
:100650000843B949C8607047B74800690421084396
:10066000B549086170470120B349C8607047B34875
:10067000C06804210843B149C8607047AF480069A9
:1006800004210843AD490861704710B5AC480068C3
:10069000000C0004AA4908600846006804210843C9
:1006A000A749086008460068086001209B49486126
:1006B00008460068012189030843984908600A46F2
:1006C00052691201E1235B025A431146934A403AB0
:1006D000926B9C4B1B685A43104600F0CBFE401EA9
:1006E0009449086205200860FFF799FF032000F095
:1006F00098FE10BD10B59248406893490840904953
:10070000486008464068C91408438D494860084657
:1007100040680921090408438949486001207F494C
:100720004861084600680121C90308437B49086005
:100730000A46526912014B231B025A431146774A5B
:10074000403A926B7F4B1B685A43104600F092FE72
:10075000401E79490862052008600120C860042015
:1007600000F05FFE10BD10B57548806880B2744916
:100770008860084680680D21090408437049886034
:10078000084680680721490608436D4988600120B2
:1007900062494861084600680121090408435F492D
:1007A00008600A46526912014B23DB015A43114685
:1007B0005A4A403A926B634B1B685A43104600F00A
:1007C00059FE401E5D490862052008600120C8608E
:1007D000052000F026FE10BD002904D1544A1268FD
:1007E0008243534B1A60012904D1514A12680243D3
:1007F0004F4B1A60704700B5002101200005FFF73C
:10080000EBFF00BD00B5002101204005FFF7E4FF2C
:1008100000BD00B501210805FFF7DEFF00BD00B5F2
:1008200001214805FFF7D8FF00BD00B500210220D7
:10083000FFF7D2FF00BD70B505460C46002D01D074
:10084000002C00DC70BD224629464048FFF7B2FC70
:100850003E481D38C47600210177FFF708FF00BF2E
:10086000F0E708B53AA00068009004216846FFF759
:10087000E2FF0A20FFF756FE08BD30B59BB00546E3
:100880000C4634A103C91A91199064216846FFF7F8
:10089000F0FCFFF7E6FF18A88471052219A9684645
:1008A000FFF752FC2246294601A80130FFF782FCDF
:1008B000611D6846FFF7BFFF1BB030BD10B51C219E
:1008C0002648FFF7DAFF002101200006FFF784FF2A
:1008D000012023490870002013490860FFF7A5FF95
:1008E00010BD00B501210220FFF776FF00BD10B555
:1008F00001210806FFF770FF13211A48FFF7BDFF1B
:10090000FFF7EFFF10BD70B505460C46002D01D076
:10091000002C29DC70BD00006109000080800440CB
:1009200000800040EE02000004000010002000A043
:10093000002100A0004006400080064000C00640A4
:1009400000C0004000000010FF0000FF7B0B001003
:10095000FD0001FFFD002201000000000D0000105D
:10096000080000102900001022462946F948FFF728
:1009700021FCF8481D38C47600210177FFF757FEA7
:1009800000BF70BD70B505460C46002D01D0002C8F
:1009900000DC70BD22462946EF48FFF70BFCEE480D
:1009A0001D38C47600210177FFF74FFE00BFF0E746
:1009B00000B5EA488068C007C00F002816D0E74895
:1009C0004069C1B2E64882788078401CE44B987058
:1009D000D81C8154C01E8078FF21F931884202DB87
:1009E0000020194688700120DD490870DB488068C6
:1009F0000421084000281ED0D6481D38C07E00289B
:100A000000D100BDD3481D38017F007F401CC2B219
:100A1000D0481D3802771D30405CD049C861CD48B0
:100A20001D38017FC07E814205DBFFF707FE0021F4
:100A3000C8481D38C17600BFE3E700B5C9488068E3
:100A4000C007C00F002816D0C6484069C1B2C648CA
:100A500082788078401CC44B9870D81C8154C01E8A
:100A60008078FF21F931884202DB00201946887026
:100A70000120BD490870BB48806804210840002857
:100A80001ED0B5481D38C07E002800D100BDB24838
:100A90001D38017F007F401CC2B2AF481D3802776D
:100AA0001D30405CAF49C861AB481D38017FC07E36
:100AB000814205DBFFF7D0FD0021A7481D38C17634
:100AC00000BFE3E700B5A9488068C007C00F002851
:100AD00016D0A6484069C1B2A54882788078401CEB
:100AE000A34B9870D81C8154C01E8078FF21F93127
:100AF000884202DB00201946887001209C4908705A
:100B00009A48806804210840002819D09948C07E7E
:100B1000002800D100BD9748017F007F401CC2B271
:100B2000944802771D30405C9049C8619148017F2C
:100B3000C07E814204DBFFF7A1FD00218D48C17614
:100B400000BFE7E701460878401EC3B20A7803E019
:100B5000C85C4240581EC3B2002BF9D10878085C2B
:100B6000904201D10120704708780A540020FAE72A
:100B70001CB581A00068019000200090022101A80E
:100B8000FFF700FF7D48FFF7DDFF002412E0A11C06
:100B90007A4A921E88180121FFF7F4FEA01C7749BB
:100BA000891E085CAA2803D101216846FFF7EAFEE6
:100BB000601CC4B27148801E8078401CA042E6DCF4
:100BC0001CBD0246002A01D0042901DA0120704729
:100BD0001078562802D15078592801D00120F6E724
:100BE0000020F4E770B505460C46002D00D170BD1D
:100BF0002878207068786070A878A070E878E07035
:100C0000A078001F002805DDA078021F291D201DE7
:100C1000FFF7D0FA00BFEAE70EB559A207CA6B4644
:100C200007C30A216846FFF728FE0EBD00B593B042
:100C3000482101A8FFF71DFB562168460171592183
:100C40004171462181710721C17140224F4902A89B
:100C5000FFF7B0FA0D2110A801720A214172462156
:100C600001A8FFF750FE13B000BD10B502460B46B9
:100C7000002100BF1AE04548405C1478A04214D11E
:100C8000424C481C205C5478A0420ED13F4C881C3A
:100C9000205C9478A04208D13C4CC81C205CD478DD
:100CA000A04202D11970002010BD091D4029E2DBCD
:100CB0000420F9E738B50446002000906946204634
:100CC000FFF7D3FF00280BD130496A461278881805
:100CD0000421FFF7CCFA2E480078401E2C490870FA
:100CE00038BD38B5054600240020009069462846E6
:100CF000FFF7BBFF002800D138BD25480078102839
:100D000011DC002408E0285D2149097889000919CF
:100D10001E4A5054601CC4B2042CF4DB1C480078FA
:100D2000401C1B49087000BFE6E770B50446002C64
:100D300001D1022070BDE0780300FFF7D0FA0870FF
:100D4000052B303750706970FFF7B8FDFFF75AFD7B
:100D500067E0000091030010860700100040064085
:100D600094010010008006408905001000C0064074
:100D70007E0900105E0B0010AABB00006D0F001072
:100D8000736F756E643430342C0000005401001011
:100D900009000010FFF743FDFFF7A9FD41E0A0782F
:100DA000001FC1B2201DFFF768FD3AE000260025B4
:100DB000A178081FC117890F091889050E0E00BFF9
:100DC00006E0AA00211D5018FFF78BFF681CC5B272
:100DD000B542F6DB1021FE48FFF74FFD21E000266B
:100DE0000025A178081FC117890F091889050E0E63
:100DF00000BF06E0AA00211D5018FFF75BFF681C2A
:100E0000C5B2B542F6DB1021F248FFF736FD08E027
:100E1000FFF70CFF1021F048FFF72FFD01E0032042
:100E200088E700BF002085E710B5EC48007801286E
:100E300020D1EB48007808281CD10A20FFF772FB6C
:100E4000FFF7D9FCE5488178C01CFFF7BAFE0028FF
:100E500007D1E449E148C01CFFF7C4FEE148FFF7B1
:100E600064FFE149DD48FFF702FAFF21F931DD486F
:100E7000FFF7FDF910BD70477047704702461078C4
:100E8000AA2802D15078BB2801D00120704793785E
:100E9000C81E834201D00120F8E70020F6E730B5F4
:100EA00085B004460D460020049001900290039006
:100EB000009029462046FFF7E1FF002801D005B049
:100EC00030BDE17968460174A1794174617981741A
:100ED0002179C17456210171592141710A21817111
:100EE0000621C171049802900D21684601730A2100
:100EF0004173694604A8FFF7B8FE002801D1FFF747
:100F0000DDFC0A2101A8FFF7FEFCB749B748FFF74F
:100F1000AEF900BFD3E710B5B448007801280FD16F
:100F2000AF48007808280BD16420FFF7FBFAAF48E0
:100F30008178C01CFFF7B3FFAB49AC48FFF797F9C6
:100F400010BDAB480078012803D10020A8490870E3
:100F500088707047704710B5A648007801280BD1FB
:100F6000A5480068A549884206D9FFF7C0FC0020C3
:100F7000A0490870A049086010BD3EB5A0A207CAEC
:100F80006B4607C3002400209549087000BF9649AE
:100F90009248FFF76CF90A216846FFF7B4FC9B48BA
:100FA000FFF7C0FA00241AE08C48C01C005D3A2804
:100FB00013D18A48C01CA11C405C31280DD1874840
:100FC000C01C211D405C312807D1012084490870D4
:100FD00012218F48FFF751FC05E0601CC4B27F4826
:100FE0008078A042E0DC00BF7D4800780028CED0A9
:100FF0003EBD10B502460B46002100BF07E0505C25
:101000005C5CA04201D0012010BD481CC1B2032984
:10101000F5D30020F8E700B587B07EA103C906919B
:1010200005907EA30FCB049301AB07C300BF6E49AD
:101030006A48FFF71CF9062105A8FFF764FC7D202C
:10104000C000FFF76FFA6549C91C01A8FFF7D1FF7F
:10105000002807D102206249087012217348FFF767
:101060000CFC03E05E4800780128E0D000BF07B028
:1010700000BD00B587B06EA30FCB069303AB07C3CB
:101080006FA103C90291019000BF57495348FFF770
:10109000EEF80C2103A8FFF736FC7D20C000FFF717
:1010A00041FA4E49C91C01A8FFF7A3FF002807D148
:1010B00003204B49087016216348FFF7DEFB03E06D
:1010C000474800780228E0D000BF07B000BD00B557
:1010D00087B05EA30FCB069303AB07C358A103C928
:1010E0000291019000BF40493C48FFF7C0F80E2133
:1010F00003A8FFF708FC5948FFF714FA3749C91C41
:1011000001A8FFF776FF002807D1042034490870B2
:1011100012215348FFF7B1FB03E031480078032860
:10112000E1D000BF07B000BD00B591B028224DA1AD
:1011300007A8FFF709F8182254A101A8FFF704F83F
:1011400000BF29492548FFF792F8252107A8FFF796
:10115000DAFB4248FFF7E6F92049C91C01A8FFF76E
:1011600048FF002807D105201D49087017214D4868
:10117000FFF783FB03E01A4800780428E1D000BFA2
:1011800011B000BD00B587B0142247A102A8FEF738
:10119000DBFF2BA103C90191009000BF12490F484A
:1011A000FFF765F8112102A8FFF7ADFB7D20C00015
:1011B000FFF7B8F90949C91C6846FFF71AFF00286C
:1011C00005D106200649087016213C4878E07AE0EF
:1011D0003C0000104C0000105C0000109401001056
:1011E0000C000010730D0010F503000089050010BD
:1011F0007E090010080000100400001010270000F5
:1012000041542B435245473F0D0A0000881300000C
:1012100091000010415445300D0A00004154453002
:101220000D0A0D0A4F4B0D0A00000000A30000102C
:1012300041542B43474154543D310D0A00000000F6
:101240000D0A4F4B0D0A0000B500001041542B430E
:10125000474143543D312C310D0A0000B80B0000CA
:10126000CB00001041542B43495053544152543D3C
:101270005443502C3132302E35352E3131372E310A
:1012800030382C393839380D0A0000000D0A434F28
:101290004E4E454354204F4B0D0A0D0A4F4B0D0A3D
:1012A00000000000DD00001041542B43495054431E
:1012B00046473D322C31300D0A000000F40000108A
:1012C000FFF7DBFA04E05A480078052800D165E70B
:1012D00000BF07B000BD00B587B056A30FCB069383
:1012E00003AB07C3574903C90291019000BF564998
:1012F0005648FEF7BCFF0F2103A8FFF704FB7D2033
:10130000C000FFF70FF95149C91C01A8FFF771FE92
:10131000002807D107204649087016214C48FFF7DE
:10132000ACFA03E0424800780628E0D000BF07B0DE
:1013300000BD00B53E480078072804D108203C498C
:101340000870FFF7CEFA00BD0FB542A30FCB039391
:101350006B4607C30FBD10B5354800210170FFF77C
:101360000CFEFFF758FEFFF784FEFFF7B0FEFFF715
:10137000DBFEFFF707FFFFF7AEFFFFF7DAFF10BD59
:1013800010B504202A490870FFF7CEFEFFF7FAFED9
:10139000FFF7A1FFFFF7CDFF10BD00B50021022030
:1013A000FFF71AFA6420FFF7BDF801210220FFF7CA
:1013B00013FA00BD7D20C000FFF7B4F8224923488E
:1013C000FEF755FF20492748FEF751FF1E492648E2
:1013D000FEF74DFFFFF742F8FFF7E1F8FFF7AFF830
:1013E000FFF753F9FFF786F9FFF7BDF9FFF717FA93
:1013F000FFF70FFAFFF719FAFFF733FA25211B4819
:10140000FFF73BFAFFF7A7FF0AE0FFF70DFDFFF735
:1014100082FDFFF796FD0120FFF7ABF8FFF79BFD7C
:10142000F3E7C206D20E01219140114A11607047C4
:101430000C00001041542B434950544D4F44453D3E
:10144000310D0A0040120000F50300009401001065
:101450000A01001041542B434950434C4F53450D52
:101460000A000000890500107E0900106C000010C1
:1014700000E100E0002203098B422CD3030A8B42D7
:1014800011D300239C464EE003460B433CD400227C
:1014900043088B4231D303098B421CD3030A8B428E
:1014A00001D394463FE0C3098B4201D3CB01C01A5C
:1014B000524183098B4201D38B01C01A5241430927
:1014C0008B4201D34B01C01A524103098B4201D315
:1014D0000B01C01A5241C3088B4201D3CB00C01A82
:1014E000524183088B4201D38B00C01A52414308FA
:1014F0008B4201D34B00C01A5241411A00D201461F
:101500005241104670475DE0CA0F00D049420310B7
:1015100000D34042534000229C4603098B422DD306
:10152000030A8B4212D3FC22890112BA030A8B42AE
:101530000CD3890192118B4208D3890192118B42FD
:1015400004D389013AD0921100E08909C3098B4282
:1015500001D3CB01C01A524183098B4201D38B01C5
:10156000C01A524143098B4201D34B01C01A524168
:1015700003098B4201D30B01C01A5241C3088B42AD
:1015800001D3CB00C01A524183088B4201D38B0098
:10159000C01A5241D9D243088B4201D34B00C01A22
:1015A0005241411A00D20146634652415B10104637
:1015B00001D34042002B00D54942704763465B107F
:1015C00000D3404201B50020C046C04602BD70B500
:1015D0008D180478401CA207920F01D10278401C9C
:1015E000231106D10378401C03E00678401C0E70DE
:1015F000491C521EF9D1002B15D002780C2634401C
:101600008A1A401C0C2C03D0A401121B9B1C08E05E
:1016100004782402121B401CF8E714780C70491C53
:10162000521C5B1EF9D5A942D3D3002070BD000027
:10163000501600000000001054010000CE150000FC
:101640003C170000540100109C1000000401000031
:10165000600600366E010001101ABFAAC3C5B3C9E7
:10166000B9A6A3ACBBB6D3ADB9E2C1D9CBBCBABAAB
:10167000BFC6BC0143B9D81C20162CC7EBC4FAC2A4
:10168000FDD7DFD7DFCCEDBCD3B0D7C3FBB5A535D5
:1016900023B9A61083BADA10A005BBF1C8A1202097
:1016A00006FD002201005A6009CAB9D3C3BABCD6EC
:1016B000DD5E4019D6C7C4DCC3C5BDFBCFB5CDB315
:1016C000CEDECFDFCDF8C2E7D7A2B2E147400DB9F9
:1016D000D8B1D5BBD8CFD4B9A6C4DC1220094750A5
:1016E0005253B8BDD7C5128005BFAAC6F4168009EB
:1016F00020504450BCA4BBEE28800EC1ACBDD354D6
:101700004350B7FECEF1C6F717C00DCDB8B4ABC984
:10171000E8D6C3B2CECAFD16C005C4A3CABD55E003
:101720000BB7A2CBCDCAFDBEDDB5BD4663CAD5148D
:0C1730005004C3FCC17503000000000061
:04000005000000C136
:00000001FF
