:020000040000FA
:10000000F00200109D010000AD010000A5010000FC
:1000100000000000000000000000000000000000E0
:10002000000000000000000000000000A701000028
:100030000000000000000000A9010000AB0100006A
:10004000AD010000AD01000000000000D30600007B
:10005000AD010000AD01000000000000AD01000096
:10006000AD010000AD010000AD010000AD010000D8
:10007000AD010000AD010000AD010000AD010000C8
:10008000AD010000AD010000AD010000AD010000B8
:10009000AD010000AD010000AD0100000000000056
:1000A000AD010000AD010000AD010000AD01000098
:1000B000AD010000AD010000AD010000AD01000088
:1000C00000F002F800F03EF80CA030C80838241800
:1000D0002D18A246671EAB4654465D46AC4201D180
:1000E00000F030F87E460F3E0FCCB6460126334274
:1000F00000D0FB1AA246AB4633431847380800002D
:1001000058080000103A02D378C878C1FAD85207CC
:1001100001D330C830C101D504680C6070470000BD
:100120000023002400250026103A01D378C1FBD813
:10013000520700D330C100D50B6070471FB51FBDFB
:1001400010B510BD00F0A8F81146FFF7F7FF00F05A
:1001500010FB00F0C0F803B4FFF7F2FF03BC00F09F
:10016000C5F8000070B505460C46164602E00FCCF7
:100170000FC5103E102EFAD2082E02D303CC03C5B1
:10018000083E042E07D301CC01C5361F03E02178B9
:100190002970641C6D1C761EF9D270BD074880471B
:1001A00007480047FEE7FEE7FEE7FEE7FEE7000040
:1001B00004480549034A054B704700005D040000F0
:1001C000C1000000F0000010F0020010F00000106C
:1001D000F8B5042A2CD3830712D00B78491C03707E
:1001E000401C521E83070BD00B78491C0370401C27
:1001F000521E830704D00B78491C0370401C521E0A
:100200008B079B0F05D0C91ADF002023DE1B08C90E
:100210000AE0FFF7A7FFF8BD1D4608C9FD401C46D0
:10022000B4402C4310C0121F042AF5D2F308C91A97
:10023000521EF0D40B78491C0370401C521EEAD4A5
:100240000B78491C0370401C012AE4D40978017022
:10025000F8BD01E004C0091F0429FBD28B0701D5BA
:100260000280801CC90700D00270704700290BD0A3
:10027000C30702D00270401C491E022904D3830721
:1002800002D50280801C891EE3E70022EEE70022EF
:10029000DFE7704770477047754600F023F8AE46B9
:1002A000050069465346C008C000854618B020B511
:1002B000FFF77EFF60BC00274908B6460026C0C590
:1002C000C0C5C0C5C0C5C0C5C0C5C0C5C0C5403D0E
:1002D00049008D4670470446C046C0462046FFF799
:1002E0003AFF0000004870478C00001001491820B8
:1002F000ABBEFEE72600020070470000FFFFFFFFD5
:1003000010B500247348406AC005000F030000F0D8
:1003100002FB10090B0D0F11131517191B1D1F21BF
:100320002325272900241DE06B4C1BE06B4C19E0B2
:100330006B4C17E06B4C15E06B4C13E06B4C11E011
:100340006B4C0FE06B4C0DE06B4C0BE06B4C09E021
:100350006B4C07E06B4C05E06B4C03E06B4C01E031
:100360006B4C00BF00BF5B48406AC006800E811C1A
:10037000204600F023FA044656484030006B8007C0
:10038000800F002806D0012808D0022826D0032894
:1003900059D126E05F486049086054E04D4840303C
:1003A00000688007800F002806D0012808D00228A6
:1003B0000AD0032810D10BE05648574908600BE0DB
:1003C00054485549086007E000205349086003E09D
:1003D00050485149086000BF00BF34E04E480460F7
:1003E00031E03C48403000688007800F002806D08C
:1003F00001280ED0022816D0032822D117E0354854
:100400008068C006C00E401C42494843424908600B
:1004100017E030488068C006C00E401C3D49484384
:100420003D4908600DE000203B49086009E029488B
:100430008068C006C00E401C3649484336490860F3
:1004400000BF00BF00BF00BF22484030816B324870
:10045000006800F0B3F93049086010BD10B51D48C0
:10046000803000682D4908431A4980310860002017
:100470001849403108600120486000BF15484030ED
:100480004068C007C00F0028F8D04120114988609B
:100490002348806B802188432149886300BF0D4831
:1004A000C068C007C00F0028F9D0032009494031B7
:1004B00008630120486300BF06484030406BC00716
:1004C000C00F0028F8D00120024940318863FFF7AF
:1004D00017FF10BD00800440C027090090051000E0
:1004E000C05C1500F0B31A00200B2000009F240010
:1004F000E0322900C0C62D0050973100E06735007A
:100500007038390000093D00401640008023430048
:10051000C0304600001BB70000000010800004003F
:1005200000820440014605E0002000E0401C994A9A
:100530009042FBD30A46491E002AF5D170479648DF
:1005400000680121490208439349086092488038B5
:10055000406849158843904980394860084640689A
:10056000491508438C498039486000208B49086050
:1005700070478B494143894AD16000BF8749096868
:10058000022211400029F9D0844909681143834AA5
:100590001160704780480068402108437E49086028
:1005A00008460068802108437B49086070470120A5
:1005B0007C49C860704701207A49086170477948D2
:1005C000C068042108437749C860704775480069CE
:1005D0000421084373490861704710B572480068E8
:1005E000000C0004704908600846006804210843B4
:1005F0006D49086008460068086001206649486146
:1006000008460068012189030843634908600A46D7
:1006100052691201E1235B025A4311465E4A403A95
:10062000926B624B1B685A43104600F0C7F8401E9D
:100630005C49086205200860FFF7B9FF032001212B
:1006400081405B4A116000BF85215A48FFF71DFEBB
:1006500010BD002904D1584A12688243564B1A60D3
:10066000012904D1544A12680243534B1A6070475F
:1006700000B5002101200005FFF7EBFF00BD00B52C
:10068000002101204005FFF7E4FF00BD00B5012176
:100690000805FFF7DEFF00BD00B501214805FFF7A3
:1006A000D8FF00BD70B505460C46002D01D0002CCA
:1006B00000DC70BD224629463E484530FFF788FDE4
:1006C0003C484030C47000210171FFF778FF00BF43
:1006D000EFE700B533488068C007C00F002814D08A
:1006E00030484069C1B2334882788078401C314B31
:1006F0009870D81C8154C01E8078402802DB0020EE
:100700001946887001202B4908702648806804210A
:10071000084000281ED027484030C078002800D16B
:1007200000BD2448403001790079401CC2B2214804
:1007300040300271401D405C1A49C8611D4840307C
:100740000179C078814205DBFFF740FF002119489D
:100750004030C17000BFE3E710B5164800780128AB
:1007600006D10A20FFF7DEFE85211248FFF78DFD36
:1007700010BD7D20C000FFF7D5FEFFF76FFEFFF72D
:1007800009FFFFF7DCFEFFF728FF01E0FFF7E4FFBA
:10079000FCE7000061090000808004400080004008
:1007A000EE0200000040064000C0004000000010C3
:1007B00000E100E004000010002100A00022030975
:1007C0008B422CD3030A8B4211D300239C464EE06C
:1007D00003460B433CD4002243088B4231D3030928
:1007E0008B421CD3030A8B4201D394463FE0C309DA
:1007F0008B4201D3CB01C01A524183098B4201D3F2
:100800008B01C01A524143098B4201D34B01C01ADC
:10081000524103098B4201D30B01C01A5241C30854
:100820008B4201D3CB00C01A524183088B4201D3C3
:100830008B00C01A524143088B4201D34B00C01AAF
:100840005241411A00D201465241104670475DE0C4
:10085000CA0F00D04942031000D340425340002247
:100860009C4603098B422DD3030A8B4212D3FC22F0
:10087000890112BA030A8B420CD3890192118B426F
:1008800008D3890192118B4204D389013AD0921185
:1008900000E08909C3098B4201D3CB01C01A524140
:1008A00083098B4201D38B01C01A524143098B4209
:1008B00001D34B01C01A524103098B4201D30B01F2
:1008C000C01A5241C3088B4201D3CB00C01A524117
:1008D00083088B4201D38B00C01A5241D9D24308FE
:1008E0008B4201D34B00C01A5241411A00D201463B
:1008F000634652415B10104601D34042002B00D5A5
:100900004942704763465B1000D3404201B5002066
:10091000C046C04602BD30B47446641E2578641CCF
:10092000AB4204D3635D5B00E31830BC18471D463F
:10093000F8E7000054090000000000100400000067
:10094000040100005809000004000010EC0200003F
:080950002001000000366E01D9
:04000005000000C136
:00000001FF
